:100000000C9489000C94B1000C94B1000C94B100D4
:100010000C9433060C9426060C94C4070C946007C9
:100020000C94B1000C94B1000C94B1000C944806EF
:100030000C94B1000C94B1000C94B1000C94B1007C
:100040000C94CE060C94B1000C94B1000C94B10049
:100050000C94B1000C94B1000C94B1000C94B1005C
:100060000C94B1000C94B10080028507088A0D8FB2
:1000700091139416199B1C9E20A225A7A82AAD2F88
:1000800031B334B6B93BBC3EC143C44649CB4CCE78
:10009000D052D55758DA5DDF61E364E6E96BEC6E68
:1000A00070F275F7F87AFD7FFFFEFDFBFAF8F5F2C6
:1000B000EEEAE6E0DAD3CCC3BAB0A5998C7E6F5FE6
:1000C0004E3B28130D090301FFFEFDFBFAF8F5F284
:1000D000EEEAE6E0DAD3CCC3BAB0A5998C7E6F5FC6
:1000E0004E3B28130D090301FFFEFDFBFAF8F5F264
:1000F000EEEAE6E0DAD3CCC3BAB0A5998C7E6F5FA6
:100100004E3B28130D09030125011704B005AE0667
:10011000BC0711241FBECFEFD4E0DEBFCDBF11E07E
:10012000A0E0B1E0E2EEFFE002C005900D92A43045
:10013000B107D9F723E0A4E0B1E001C01D92A130DE
:10014000B207E1F711E0C2E1D1E004C02297FE015D
:100150000E94EB07C830D107C9F70E94A5060C948E
:10016000EF070C9400000895AF92BF92CF92DF92F8
:10017000EF92FF920F931F93CF93DF9304E011E070
:10018000CCE1D1E0F12CAA24A394C8010E94300153
:10019000882309F448C08F2D0E948D01811123C04E
:1001A000A8828F2D0E94850181110AC08D2D817C2E
:1001B000806CD82E6894D0F86F2D8D2D97E031C0CB
:1001C0008E2D8E638F73E82E6894E0F86F2D8E2D40
:1001D00090E00E94AB0148EC50E060E070E0C801A4
:1001E0000E944C0120C08881882399F08B2D81705A
:1001F000B82E6894B0F86F2D8B2D98EF0E94AB014C
:1002000048EC50E060E070E0C8010E944C011882A8
:100210000AC08C2D8170C82E6894C0F86F2D8C2D6B
:1002200090E00E94AB010C5F1F4FF394219686E093
:10023000F812ABCFDF91CF911F910F91FF90EF900C
:10024000DF90CF90BF90AF900895E4E0F1E011927D
:1002500011921192119281E0EC31F807C1F70895E3
:10026000CF92DF92EF92FF92CF93DF93EC010E9447
:10027000660121E0C880D980EA80FB806C157D058D
:100280008E059F0508F420E0822FDF91CF91FF902B
:10029000EF90DF90CF900895CF92DF92EF92FF9290
:1002A000CF93DF93EC016A017B010E9466016C0D24
:1002B0007D1D8E1D9F1D688379838A839B83DF91BB
:1002C000CF91FF90EF90DF90CF900895609139012A
:1002D00070913A0180913B0190913C010895282F43
:1002E000FC0180E09E2F921B961718F49191890FC4
:1002F000F9CF0895E82FF0E0ED5CFE4F908199234F
:1003000019F010820C94840308959AE0899FF001FB
:100310001124E35CFE4F808108950F931F939AE0B0
:10032000899FF0011124E35CFE4F81E0028113817B
:10033000248135814091390150913A0160913B010E
:1003400070913C01041715072607370708F080E075
:100350001F910F910895382F329536953695337049
:10036000292F2770220F220F232BE62FF0E0EE0F0C
:10037000FF1FEB57FE4F8E73322F3295330F330F23
:10038000307C8160832B808326952695987F27700B
:10039000292B218308950C94B3005F926F927F9272
:1003A0008F929F92AF92BF92CF92DF92EF92FF9285
:1003B0000F931F93CF93DF9300D0CDB7DEB780911B
:1003C000C1019091C201A091C301B091C401809379
:1003D000390190933A01A0933B01B0933C0118EA94
:1003E000C12E11E0D12E07E2A02E01E0B02EE12CAB
:1003F000F12C0DE311E088248394912C5E2CD6011E
:100400008C91882309F462C04091390150913A01DE
:1004100060913B0170913C0148535F4F6F4F7F4F9C
:10042000F8014283538364837583F60133976080B8
:100430007180329620812130F9F4D3018C91282FDC
:100440002E7730E035952795F901E859FF4FE49173
:100450008E13BCC0F8012083168217821086118685
:1004600020912601C4010E2C01C0880F0A94EAF7DE
:10047000282B20932601AAC0243008F4A7C0F3013A
:1004800080818A3A09F0A2C08181853509F09EC039
:100490006FEF620FC3012A830E946F012A81F3016B
:1004A000E20FF11D31979081891390C0F701ED5C47
:1004B000FE4F23502083E2E06E0E711CD5016D9239
:1004C0007C92F8011682178210861186065F1F4FF4
:1004D000FFEFEF1AFF0A84E0C80ED11CA2E0AA0EBB
:1004E000B11CB6E0EB16F10409F088CF8091BE0193
:1004F00090912401892B809324018091BF018093E6
:1005000025018091BD01809323018091220190916A
:10051000C001892B809322010E94B40010E0812F3A
:100520000E947A011F5F1630D1F7B12C0DE311E064
:10053000F801C680D780E084F18440913901509160
:100540003A0160913B0170913C014C155D056E05CF
:100550007F0510F1E181F0E0E859FF4FE491E98374
:1005600041E0BE016F5F7F4F8B2D0E9461038823A6
:1005700099F04091390150913A0160913B0170919D
:100580003C014A565F4F6F4F7F4FD80116964D93EF
:100590005D936D937C931997065F1F4FB394B6E0FC
:1005A000BB12C6CF109226010F900F90DF91CF9112
:1005B0001F910F91FF90EF90DF90CF90BF90AF9081
:1005C0009F908F907F906F905F900895852D0E94EF
:1005D00084037CCF8091E0029091E102A091E2023D
:1005E000B091E3028054984DA64FBF4F80937E0197
:1005F00090937F01A0938001B093810108950E94A0
:10060000F5058BE791E00E94320481110C94EA0217
:100610000895FC01F894ACE7B1E08C91818380915E
:100620007D01828380917B0180831C927894089560
:100630008091790190917A01939590937A018093BA
:100640007901883E934060F00E94FF028091790119
:1006500090917A01885E934090937A01809379011A
:1006600008950C94AA04FF920F931F93CF93DF93E6
:10067000C8EAD1E010E001E0812F0E940B05882339
:10068000B1F0812F0E941705F82E812F0E942405BA
:10069000FC0190819E3441F0933D31F4FE0131978D
:1006A000FA94F082088303C0812F0E942B051F5FFC
:1006B0002496163009F7DF91CF911F910F91FF908B
:1006C0000895FF920F931F93CF93DF93F62E072F7A
:1006D000142F0E943305882381F083ED0E944E057C
:1006E000CF2DD02F112329F089910E944E05115052
:1006F000F9CF0E94680581E001C080E0DF91CF91D1
:100700001F910F91FF900895CF93C82F0E942B0542
:1007100084E0C89FF0011124EB55FE4F1382CF9166
:1007200008950E94D5070E9418060E9409060E949B
:10073000BD060E9436060E9434060E946E050E9485
:1007400091070E941E06C8EAD1E010E0812F0E94A6
:100750002405FE01339701969183808318821F5FE1
:100760002496163099F70E94CB010E94EA0201E01C
:100770000E94E2050E9433038DEB91E00E94090381
:100780008091E0029091E102A091E202B091E30237
:100790008093C1019093C201A093C301B093C4019F
:1007A0000E94CD01C5E8D1E010E0688179812296F0
:1007B00060FF03C0812F0E947F051F5F1630A9F7DD
:1007C0000E94AC05C8EAD1E010E08881882321F0BE
:1007D000812F0E942B0518821F5F24961630A9F7DF
:1007E0004091E0025091E1026091E2027091E302D7
:1007F00080917E0190917F01A0918001B091810153
:10080000481759076A077B0708F4B2CF0E94870789
:100810000E9435060E9427060E94D3070E942D06DB
:100820000E9434060E9491070093C001A1CFE5E821
:10083000F1E08081817080831182329681E0E1391C
:10084000F807B9F78FEF809382018093830180933B
:10085000840110927E0110927F011092800110920B
:1008600081010895CF93DF93EC010E94200620912F
:10087000DF019091DE0182133DC0992319F0915060
:100880009093DE012091D9013091DA0121153105D3
:1008900079F1215031093093DA012093D901232BCA
:1008A00029F4882319F09981926099832091DC01C1
:1008B0003091DD0121153105D9F0215031093093F6
:1008C000DD012093DC01232B99F481110FC080916D
:1008D000DB019981813011F4986003C0823019F4F2
:1008E0009061998303C0906299838A831092DB019F
:1008F00080E025C091111FC099818823B1F09160DB
:1009000099839091DB019F3F19F09F5F9093DB01EA
:100910002AE431E03093DD012093DC0120ED37E063
:100920003093DA012093D90102C0946099838093B7
:10093000DF0181E001C080E094E19093DE019091BD
:10094000DF019883DF91CF9108950E943D06809347
:10095000E00108950F931F93CF93DF936091E0011F
:10096000E5EAF2E009EC12E0A4EAB2E030E250E895
:1009700071E08C91932F9623C9F18430F8F4908123
:10098000992391F1823010F080E001C080E8292F96
:100990002695282B90FF10C0E8014881433250F47F
:1009A000CD01840F911DEC012A834F5FE80148833C
:1009B00050831AC0108216C0208316C08730A0F45E
:1009C0008081803849F4E8018881882369F096960F
:1009D0007C939697108208C096968C919697811179
:1009E00003C05083E80118821C9206C0883018F4B6
:1009F0008F5F8C9301C0108297973695B7970752F7
:100A00001109D1E0AA3BBD0709F0B3CFDF91CF9127
:100A10001F910F91089597E2899FF0011124EF51E2
:100A2000FE4F96A181E0911101C080E0089597E208
:100A3000899FF0011124EF51FE4F86A1882311F008
:100A400085A1089580E0089527E2829FC0011124C6
:100A50008D519E4F089597E2899FF0011124EF5127
:100A6000FE4F16A2089597E2899FF0011124EF51DD
:100A7000FE4F9081973010F480E008956CE076E0AE
:100A800091E001C0990F8A95EAF7892F0E946F06BD
:100A900080EB97E10E94950681E008950F931F93E4
:100AA000CF93DF93082FC8E0D0E011E0812F80239F
:100AB00019F08CE096E002C08EED9EE00E94950653
:100AC000110F219799F7DF91CF911F910F91089501
:100AD00080EB97E10E9495060C949D06089521E015
:100AE0002093E9022091E9022111FCCF22E1FC01CF
:100AF000ABEEB2E001900D922A95E1F7089590E0F7
:100B0000DC01AA0FBB1FA80FB91FA553BD4F862F2D
:100B100086958F71E82FF0E0E851FF4FE491EC9358
:100B20006295669566956370872F8770880F880F2A
:100B3000862BE82FF0E0E853FF4FE4911196EC93F9
:100B40001197769576957695E72FF0E0E855FF4F6B
:100B5000E4911296EC9308958BEC92E00C946F055F
:100B60008FEF8093DD028093DE028093DF0280911D
:100B7000DD029091DE02A091DF028093CB02909380
:100B8000CC02A093CD028093CE029093CF02A0938B
:100B9000D0028093D1029093D202A093D30280938B
:100BA000D4029093D502A093D6028093D70290935B
:100BB000D802A093D9028093DA029093DB02A0932B
:100BC000DC020895F8948091000190910101A091B8
:100BD0000201B09103018093E0029093E102A0939F
:100BE000E202B093E302789408958091000190911D
:100BF0000101A0910201B09103010196A11DB11D57
:100C00008093000190930101A0930201B09303012E
:100C100008958EE680937C00EAE7F0E080818460AE
:100C2000808380818260808380818E7F808308952D
:100C3000E8E6F0E080818460808308955F9A0895FB
:100C400089B18095881F8827881F08951895EDE63B
:100C5000F0E08081806880830895EDE6F0E0808197
:100C60008F778083089518950895089584B18F63D0
:100C700084B987B1806C87B9089586B1809586B9AB
:100C800087B99AE19A95F1F700C017B886B9089527
:100C90001F920F920FB60F9211242F933F938F93B1
:100CA0009F939091E40237B186B1892327B1292B14
:100CB00027B993B92AE12A95F1F700C093B986B90B
:100CC0009AE19A95F1F700C037B986B99F918F9153
:100CD0003F912F910F900FBE0F901F901895CF93BB
:100CE000DF93E1E8F0E098E19083A0E8B0E01C92A7
:100CF0008F738093E4021092850010928400C8E8FC
:100D0000D0E081E090E09983888383E08C937983BD
:100D10006883B19AB09AAFE6B0E08C9182608C9310
:100D200089E18083DF91CF910895B09BFECF9093AE
:100D3000890080938800B09A0895B09BFECFB09A46
:100D4000B09BFECF10928100089580E880936100EF
:100D50001092610078940E949103FDCF8FEF8093F1
:100D6000E5028093E6028093E70208952E9870983A
:100D70002F9871985C985A980895269A689A279A9D
:100D8000699A549A529A5E9A5D9A569A559A81E057
:100D900080936E0082E08093700008951F920F92FE
:100DA0000FB60F9211242F933F934F935F936F933E
:100DB0007F938F939F93AF93BF93CF93DF93EF93E3
:100DC000FF930E94A504789400008091E80290E0CF
:100DD000EC01CC0FDD1FC80FD91FC551DD4F80912D
:100DE000EA028230A1F128F4882341F0813089F0B1
:100DF00050C0833091F18430E9F14BC00E94B606B7
:100E00008A818F3F89F183E28093B000539A6B9A75
:100E10002BC06B988091E802823081F030F48823F7
:100E200059F0813081F4709A0EC0843059F040F04E
:100E3000853049F45A9A07C02E9A05C02F9A03C0EC
:100E4000719A01C05C9A8A818093B4000DC08FEFC3
:100E50008093B400888187BD07C053988093B00009
:100E60008FEF87BD898188BD8091EA028F5F809373
:100E7000EA020FC08FEF88BD1092EA028091E8026B
:100E80008F5F8093E802863021F41092E90210927D
:100E9000E8020E9431030E941803FF91EF91DF9155
:100EA000CF91BF91AF919F918F917F916F915F9102
:100EB0004F913F912F910F900FBE0F901F9018955B
:100EC0001F920F920FB60F9211242F933F934F93BF
:100ED0005F936F937F938F939F93AF93BF93EF93A2
:100EE000FF930E94A50478940E943103FF91EF9133
:100EF000BF91AF919F918F917F916F915F914F9132
:100F00003F912F910F900FBE0F901F90189515BC19
:100F10000E94B6061092B10014BC1092B0006B98FB
:100F200008958FEF87BD88BD16BC95B5906895BDB7
:100F300095B5906495BD93EA94BD93E29093B0000B
:100F400090E89093B3008093B4001092B200E1EB6C
:100F5000F0E080818064808383B5806883BD83B541
:100F6000826083BD83B5816083BD82E085BD80835F
:100F700083B58F7783BD08958FEF8093FD028093B3
:100F8000FE028093FF0208951F920F920FB60F92F8
:100F900011248F9381E0809300038F910F900FBEF7
:100FA0000F901F90189588950895A89584B7877F0E
:100FB00084BF88E10FB6F8948093600010926000BF
:100FC0000FBE83B7817F846083BF83B7816083BF97
:100FD0000895EE0FFF1F0590F491E02D0994F89409
:020FE000FFCF41
:040FE200010000000A
:00000001FF
